{
  "contractName": "CompanyFactory",
  "abi": [
    {
      "constant": true,
      "inputs": [],
      "name": "getCompanies",
      "outputs": [
        {
          "name": "",
          "type": "address[]"
        }
      ],
      "payable": false,
      "stateMutability": "view",
      "type": "function"
    },
    {
      "constant": true,
      "inputs": [],
      "name": "exchangeContract",
      "outputs": [
        {
          "name": "",
          "type": "address"
        }
      ],
      "payable": false,
      "stateMutability": "view",
      "type": "function"
    },
    {
      "constant": false,
      "inputs": [
        {
          "name": "name",
          "type": "string"
        }
      ],
      "name": "addCompany",
      "outputs": [],
      "payable": false,
      "stateMutability": "nonpayable",
      "type": "function"
    },
    {
      "inputs": [
        {
          "name": "_exchangeContract",
          "type": "address"
        }
      ],
      "payable": false,
      "stateMutability": "nonpayable",
      "type": "constructor"
    },
    {
      "anonymous": false,
      "inputs": [
        {
          "indexed": false,
          "name": "company",
          "type": "address"
        }
      ],
      "name": "CompanyCreated",
      "type": "event"
    }
  ],
  "bytecode": "0x6060604052341561000f57600080fd5b6040516020806135c083398101604052808051906020019091905050806000806101000a81548173ffffffffffffffffffffffffffffffffffffffff021916908373ffffffffffffffffffffffffffffffffffffffff160217905550506135458061007b6000396000f300606060405260043610610057576000357c0100000000000000000000000000000000000000000000000000000000900463ffffffff1680630c0b66911461005c5780633f0a0797146100c6578063d6483d171461011b575b600080fd5b341561006757600080fd5b61006f610178565b6040518080602001828103825283818151815260200191508051906020019060200280838360005b838110156100b2578082015181840152602081019050610097565b505050509050019250505060405180910390f35b34156100d157600080fd5b6100d9610249565b604051808273ffffffffffffffffffffffffffffffffffffffff1673ffffffffffffffffffffffffffffffffffffffff16815260200191505060405180910390f35b341561012657600080fd5b610176600480803590602001908201803590602001908080601f0160208091040260200160405190810160405280939291908181526020018383808284378201915050505050509190505061026e565b005b610180610490565b600160003373ffffffffffffffffffffffffffffffffffffffff1673ffffffffffffffffffffffffffffffffffffffff16815260200190815260200160002080548060200260200160405190810160405280929190818152602001828054801561023f57602002820191906000526020600020905b8160009054906101000a900473ffffffffffffffffffffffffffffffffffffffff1673ffffffffffffffffffffffffffffffffffffffff16815260200190600101908083116101f5575b5050505050905090565b6000809054906101000a900473ffffffffffffffffffffffffffffffffffffffff1681565b600081336000809054906101000a900473ffffffffffffffffffffffffffffffffffffffff1661029c6104a4565b80806020018473ffffffffffffffffffffffffffffffffffffffff1673ffffffffffffffffffffffffffffffffffffffff1681526020018373ffffffffffffffffffffffffffffffffffffffff1673ffffffffffffffffffffffffffffffffffffffff168152602001828103825285818151815260200191508051906020019080838360005b8381101561033d578082015181840152602081019050610322565b50505050905090810190601f16801561036a5780820380516001836020036101000a031916815260200191505b50945050505050604051809103906000f080151561038757600080fd5b9050600160003373ffffffffffffffffffffffffffffffffffffffff1673ffffffffffffffffffffffffffffffffffffffff16815260200190815260200160002080548060010182816103da91906104b4565b9160005260206000209001600083909190916101000a81548173ffffffffffffffffffffffffffffffffffffffff021916908373ffffffffffffffffffffffffffffffffffffffff160217905550507faf00cebe9bcf143d4aaf9af981db775325400dfff1f9916c76b5d17d72ffc94e81604051808273ffffffffffffffffffffffffffffffffffffffff1673ffffffffffffffffffffffffffffffffffffffff16815260200191505060405180910390a15050565b602060405190810160405280600081525090565b6040516130148061050683390190565b8154818355818115116104db578183600052602060002091820191016104da91906104e0565b5b505050565b61050291905b808211156104fe5760008160009055506001016104e6565b5090565b905600606060405260405162003014380380620030148339810160405280805182019190602001805190602001909190805190602001909190505033600160006101000a81548173ffffffffffffffffffffffffffffffffffffffff021916908373ffffffffffffffffffffffffffffffffffffffff16021790555062000097826200013b6401000000000262000518176401000000009004565b620000d8600560009054906101000a900473ffffffffffffffffffffffffffffffffffffffff16620002196401000000000262000c54176401000000009004565b8260029080519060200190620000f09291906200025c565b5080600360006101000a81548173ffffffffffffffffffffffffffffffffffffffff021916908373ffffffffffffffffffffffffffffffffffffffff1602179055505050506200030b565b600160009054906101000a900473ffffffffffffffffffffffffffffffffffffffff1673ffffffffffffffffffffffffffffffffffffffff163373ffffffffffffffffffffffffffffffffffffffff161415156200019857600080fd5b600073ffffffffffffffffffffffffffffffffffffffff168173ffffffffffffffffffffffffffffffffffffffff1614151515620001d557600080fd5b80600160006101000a81548173ffffffffffffffffffffffffffffffffffffffff021916908373ffffffffffffffffffffffffffffffffffffffff16021790555050565b806000806101000a81548173ffffffffffffffffffffffffffffffffffffffff021916908373ffffffffffffffffffffffffffffffffffffffff16021790555050565b828054600181600116156101000203166002900490600052602060002090601f016020900481019282601f106200029f57805160ff1916838001178555620002d0565b82800160010185558215620002d0579182015b82811115620002cf578251825591602001919060010190620002b2565b5b509050620002df9190620002e3565b5090565b6200030891905b8082111562000304576000816000905550600101620002ea565b5090565b90565b612cf9806200031b6000396000f300606060405260043610610099576000357c0100000000000000000000000000000000000000000000000000000000900463ffffffff16806306fdde031461009e5780630c08bf881461012c57806313af4035146101415780633f0a07971461017a5780638da5cb5b146101cf578063b48cc6e514610224578063bf7e214f146102c1578063ec0cfd0b14610316578063f7b1080814610380575b600080fd5b34156100a957600080fd5b6100b16103e3565b6040518080602001828103825283818151815260200191508051906020019080838360005b838110156100f15780820151818401526020810190506100d6565b50505050905090810190601f16801561011e5780820380516001836020036101000a031916815260200191505b509250505060405180910390f35b341561013757600080fd5b61013f610481565b005b341561014c57600080fd5b610178600480803573ffffffffffffffffffffffffffffffffffffffff16906020019091905050610518565b005b341561018557600080fd5b61018d6105f4565b604051808273ffffffffffffffffffffffffffffffffffffffff1673ffffffffffffffffffffffffffffffffffffffff16815260200191505060405180910390f35b34156101da57600080fd5b6101e261061a565b604051808273ffffffffffffffffffffffffffffffffffffffff1673ffffffffffffffffffffffffffffffffffffffff16815260200191505060405180910390f35b341561022f57600080fd5b61027f600480803590602001908201803590602001908080601f01602080910402602001604051908101604052809392919081815260200183838082843782019150505050505091905050610640565b604051808273ffffffffffffffffffffffffffffffffffffffff1673ffffffffffffffffffffffffffffffffffffffff16815260200191505060405180910390f35b34156102cc57600080fd5b6102d4610887565b604051808273ffffffffffffffffffffffffffffffffffffffff1673ffffffffffffffffffffffffffffffffffffffff16815260200191505060405180910390f35b341561032157600080fd5b6103296108ac565b6040518080602001828103825283818151815260200191508051906020019060200280838360005b8381101561036c578082015181840152602081019050610351565b505050509050019250505060405180910390f35b341561038b57600080fd5b6103a16004808035906020019091905050610940565b604051808273ffffffffffffffffffffffffffffffffffffffff1673ffffffffffffffffffffffffffffffffffffffff16815260200191505060405180910390f35b60028054600181600116156101000203166002900480601f0160208091040260200160405190810160405280929190818152602001828054600181600116156101000203166002900480156104795780601f1061044e57610100808354040283529160200191610479565b820191906000526020600020905b81548152906001019060200180831161045c57829003601f168201915b505050505081565b600160009054906101000a900473ffffffffffffffffffffffffffffffffffffffff1673ffffffffffffffffffffffffffffffffffffffff163373ffffffffffffffffffffffffffffffffffffffff161415156104dd57600080fd5b600160009054906101000a900473ffffffffffffffffffffffffffffffffffffffff1673ffffffffffffffffffffffffffffffffffffffff16ff5b600160009054906101000a900473ffffffffffffffffffffffffffffffffffffffff1673ffffffffffffffffffffffffffffffffffffffff163373ffffffffffffffffffffffffffffffffffffffff1614151561057457600080fd5b600073ffffffffffffffffffffffffffffffffffffffff168173ffffffffffffffffffffffffffffffffffffffff16141515156105b057600080fd5b80600160006101000a81548173ffffffffffffffffffffffffffffffffffffffff021916908373ffffffffffffffffffffffffffffffffffffffff16021790555050565b600360009054906101000a900473ffffffffffffffffffffffffffffffffffffffff1681565b600160009054906101000a900473ffffffffffffffffffffffffffffffffffffffff1681565b600080610671336000357fffffffff000000000000000000000000000000000000000000000000000000001661097f565b151561067c57600080fd5b82600160009054906101000a900473ffffffffffffffffffffffffffffffffffffffff16600360009054906101000a900473ffffffffffffffffffffffffffffffffffffffff166106cb610bde565b80806020018473ffffffffffffffffffffffffffffffffffffffff1673ffffffffffffffffffffffffffffffffffffffff1681526020018373ffffffffffffffffffffffffffffffffffffffff1673ffffffffffffffffffffffffffffffffffffffff168152602001828103825285818151815260200191508051906020019080838360005b8381101561076c578082015181840152602081019050610751565b50505050905090810190601f1680156107995780820380516001836020036101000a031916815260200191505b50945050505050604051809103906000f08015156107b657600080fd5b9050600480548060010182816107cc9190610bef565b9160005260206000209001600083909190916101000a81548173ffffffffffffffffffffffffffffffffffffffff021916908373ffffffffffffffffffffffffffffffffffffffff160217905550507f05f35573428dbee5ccc6f8cc1b3fd7124c4c5b206a288190526c8dbcceb7d2e481604051808273ffffffffffffffffffffffffffffffffffffffff1673ffffffffffffffffffffffffffffffffffffffff16815260200191505060405180910390a180915050919050565b6000809054906101000a900473ffffffffffffffffffffffffffffffffffffffff1681565b6108b4610c1b565b600480548060200260200160405190810160405280929190818152602001828054801561093657602002820191906000526020600020905b8160009054906101000a900473ffffffffffffffffffffffffffffffffffffffff1673ffffffffffffffffffffffffffffffffffffffff16815260200190600101908083116108ec575b5050505050905090565b60048181548110151561094f57fe5b90600052602060002090016000915054906101000a900473ffffffffffffffffffffffffffffffffffffffff1681565b60003073ffffffffffffffffffffffffffffffffffffffff168373ffffffffffffffffffffffffffffffffffffffff1614156109be5760019050610bd8565b600160009054906101000a900473ffffffffffffffffffffffffffffffffffffffff1673ffffffffffffffffffffffffffffffffffffffff168373ffffffffffffffffffffffffffffffffffffffff161415610a1d5760019050610bd8565b600073ffffffffffffffffffffffffffffffffffffffff166000809054906101000a900473ffffffffffffffffffffffffffffffffffffffff1673ffffffffffffffffffffffffffffffffffffffff161415610a7c5760009050610bd8565b6000809054906101000a900473ffffffffffffffffffffffffffffffffffffffff1673ffffffffffffffffffffffffffffffffffffffff1663b70096138430856000604051602001526040518463ffffffff167c0100000000000000000000000000000000000000000000000000000000028152600401808473ffffffffffffffffffffffffffffffffffffffff1673ffffffffffffffffffffffffffffffffffffffff1681526020018373ffffffffffffffffffffffffffffffffffffffff1673ffffffffffffffffffffffffffffffffffffffff168152602001827bffffffffffffffffffffffffffffffffffffffffffffffffffffffff19167bffffffffffffffffffffffffffffffffffffffffffffffffffffffff191681526020019350505050602060405180830381600087803b1515610bba57600080fd5b6102c65a03f11515610bcb57600080fd5b5050506040518051905090505b92915050565b6040516120368062000c9883390190565b815481835581811511610c1657818360005260206000209182019101610c159190610c2f565b5b505050565b602060405190810160405280600081525090565b610c5191905b80821115610c4d576000816000905550600101610c35565b5090565b90565b806000806101000a81548173ffffffffffffffffffffffffffffffffffffffff021916908373ffffffffffffffffffffffffffffffffffffffff160217905550505600606060405260405162002036380380620020368339810160405280805182019190602001805190602001909190805190602001909190505033600160006101000a81548173ffffffffffffffffffffffffffffffffffffffff021916908373ffffffffffffffffffffffffffffffffffffffff16021790555062000097826200013b640100000000026200092a176401000000009004565b620000d8600860009054906101000a900473ffffffffffffffffffffffffffffffffffffffff16620002196401000000000262001cac176401000000009004565b8260049080519060200190620000f09291906200025c565b5080600760006101000a81548173ffffffffffffffffffffffffffffffffffffffff021916908373ffffffffffffffffffffffffffffffffffffffff1602179055505050506200030b565b600160009054906101000a900473ffffffffffffffffffffffffffffffffffffffff1673ffffffffffffffffffffffffffffffffffffffff163373ffffffffffffffffffffffffffffffffffffffff161415156200019857600080fd5b600073ffffffffffffffffffffffffffffffffffffffff168173ffffffffffffffffffffffffffffffffffffffff1614151515620001d557600080fd5b80600160006101000a81548173ffffffffffffffffffffffffffffffffffffffff021916908373ffffffffffffffffffffffffffffffffffffffff16021790555050565b806000806101000a81548173ffffffffffffffffffffffffffffffffffffffff021916908373ffffffffffffffffffffffffffffffffffffffff16021790555050565b828054600181600116156101000203166002900490600052602060002090601f016020900481019282601f106200029f57805160ff1916838001178555620002d0565b82800160010185558215620002d0579182015b82811115620002cf578251825591602001919060010190620002b2565b5b509050620002df9190620002e3565b5090565b6200030891905b8082111562000304576000816000905550600101620002ea565b5090565b90565b611d1b806200031b6000396000f3006060604052600436106100e6576000357c0100000000000000000000000000000000000000000000000000000000900463ffffffff16806306fdde03146100eb5780630c08bf88146101795780630fa467a61461018e57806313af4035146101b85780634fa756a9146101f1578063553fb24c1461026b5780637ec511fd146102f55780638c59df8e146103255780638da5cb5b146103c157806396173b6a14610416578063bf7e214f1461047c578063c77b7c91146104d1578063c804b4961461054b578063eac8f5b8146105d5578063edf49c0914610622578063f904f10e1461064b575b600080fd5b34156100f657600080fd5b6100fe61068b565b6040518080602001828103825283818151815260200191508051906020019080838360005b8381101561013e578082015181840152602081019050610123565b50505050905090810190601f16801561016b5780820380516001836020036101000a031916815260200191505b509250505060405180910390f35b341561018457600080fd5b61018c610729565b005b6101b660048080359060200190919080359060200190919080359060200190919050506107c0565b005b34156101c357600080fd5b6101ef600480803573ffffffffffffffffffffffffffffffffffffffff1690602001909190505061092a565b005b34156101fc57600080fd5b61021b6004808035906020019091908035906020019091905050610a06565b604051808481526020018381526020018273ffffffffffffffffffffffffffffffffffffffff1673ffffffffffffffffffffffffffffffffffffffff168152602001935050505060405180910390f35b341561027657600080fd5b61029e6004808035906020019091908035906020019091908035906020019091905050610acc565b6040518080602001828103825283818151815260200191508051906020019060200280838360005b838110156102e15780820151818401526020810190506102c6565b505050509050019250505060405180910390f35b341561030057600080fd5b610323600480803590602001909190803560001916906020019091905050610ae8565b005b341561033057600080fd5b6103466004808035906020019091905050610cf6565b6040518080602001828103825283818151815260200191508051906020019080838360005b8381101561038657808201518184015260208101905061036b565b50505050905090810190601f1680156103b35780820380516001836020036101000a031916815260200191505b509250505060405180910390f35b34156103cc57600080fd5b6103d4610e2e565b604051808273ffffffffffffffffffffffffffffffffffffffff1673ffffffffffffffffffffffffffffffffffffffff16815260200191505060405180910390f35b341561042157600080fd5b61047a600480803590602001909190803590602001908201803590602001908080601f01602080910402602001604051908101604052809392919081815260200183838082843782019150505050505091905050610e54565b005b341561048757600080fd5b61048f610f23565b604051808273ffffffffffffffffffffffffffffffffffffffff1673ffffffffffffffffffffffffffffffffffffffff16815260200191505060405180910390f35b34156104dc57600080fd5b6104fb6004808035906020019091908035906020019091905050610f48565b604051808481526020018381526020018273ffffffffffffffffffffffffffffffffffffffff1673ffffffffffffffffffffffffffffffffffffffff168152602001935050505060405180910390f35b341561055657600080fd5b61057e6004808035906020019091908035906020019091908035906020019091905050610f9f565b6040518080602001828103825283818151815260200191508051906020019060200280838360005b838110156105c15780820151818401526020810190506105a6565b505050509050019250505060405180910390f35b34156105e057600080fd5b6105f66004808035906020019091905050611192565b604051808481526020018381526020018260001916600019168152602001935050505060405180910390f35b341561062d57600080fd5b6106356112f7565b6040518082815260200191505060405180910390f35b341561065657600080fd5b6106756004808035906020019091908035906020019091905050611304565b6040518082815260200191505060405180910390f35b60048054600181600116156101000203166002900480601f0160208091040260200160405190810160405280929190818152602001828054600181600116156101000203166002900480156107215780601f106106f657610100808354040283529160200191610721565b820191906000526020600020905b81548152906001019060200180831161070457829003601f168201915b505050505081565b600160009054906101000a900473ffffffffffffffffffffffffffffffffffffffff1673ffffffffffffffffffffffffffffffffffffffff163373ffffffffffffffffffffffffffffffffffffffff1614151561078557600080fd5b600160009054906101000a900473ffffffffffffffffffffffffffffffffffffffff1673ffffffffffffffffffffffffffffffffffffffff16ff5b60008083831115156107d157600080fd5b8342111515156107e057600080fd5b6018603c808686038115156107f157fe5b048115156107fb57fe5b0481151561080557fe5b0491506108128583611304565b905080341015151561082357600080fd5b6108308585868603611552565b6060604051908101604052808581526020018481526020013373ffffffffffffffffffffffffffffffffffffffff16815250600560008781526020019081526020016000206000868152602001908152602001600020600082015181600001556020820151816001015560408201518160020160006101000a81548173ffffffffffffffffffffffffffffffffffffffff021916908373ffffffffffffffffffffffffffffffffffffffff1602179055509050507fecf21726817691921dd19284beadaee1687b015943ce42099266b8c4183b6f0a8585604051808381526020018281526020019250505060405180910390a15050505050565b600160009054906101000a900473ffffffffffffffffffffffffffffffffffffffff1673ffffffffffffffffffffffffffffffffffffffff163373ffffffffffffffffffffffffffffffffffffffff1614151561098657600080fd5b600073ffffffffffffffffffffffffffffffffffffffff168173ffffffffffffffffffffffffffffffffffffffff16141515156109c257600080fd5b80600160006101000a81548173ffffffffffffffffffffffffffffffffffffffff021916908373ffffffffffffffffffffffffffffffffffffffff16021790555050565b6000806000610a1361190a565b6005600087815260200190815260200160002060008681526020019081526020016000206060604051908101604052908160008201548152602001600182015481526020016002820160009054906101000a900473ffffffffffffffffffffffffffffffffffffffff1673ffffffffffffffffffffffffffffffffffffffff1673ffffffffffffffffffffffffffffffffffffffff16815250509050806000015181602001518260400151935093509350509250925092565b610ad4611942565b610adf848484610f9f565b90509392505050565b6000610af2611956565b600160009054906101000a900473ffffffffffffffffffffffffffffffffffffffff1673ffffffffffffffffffffffffffffffffffffffff163373ffffffffffffffffffffffffffffffffffffffff16141515610b4e57600080fd5b600760009054906101000a900473ffffffffffffffffffffffffffffffffffffffff1673ffffffffffffffffffffffffffffffffffffffff16634f69a419846000604051602001526040518263ffffffff167c0100000000000000000000000000000000000000000000000000000000028152600401808260001916600019168152602001915050602060405180830381600087803b1515610bef57600080fd5b6102c65a03f11515610c0057600080fd5b505050604051805190501515610c1557600080fd5b6006805490509150610c2682611779565b60068054806001018281610c3a919061196a565b91600052602060002090600402016000608060405190810160405280868152602001888152602001876000191681526020018581525090919091506000820151816000015560208201518160010155604082015181600201906000191690556060820151816003019080519060200190610cb592919061199c565b505050507fe9667cd49094a292b02a1d8555f54c265b42912082c2f32b2050393b06d83598826040518082815260200191505060405180910390a150505050565b610cfe6119fc565b6000600683815481101515610d0f57fe5b906000526020600020906004020160030180549050111515610d3057600080fd5b600682815481101515610d3f57fe5b90600052602060002090600402016003016001600684815481101515610d6157fe5b90600052602060002090600402016003018054905003815481101515610d8357fe5b90600052602060002090018054600181600116156101000203166002900480601f016020809104026020016040519081016040528092919081815260200182805460018160011615610100020316600290048015610e225780601f10610df757610100808354040283529160200191610e22565b820191906000526020600020905b815481529060010190602001808311610e0557829003601f168201915b50505050509050919050565b600160009054906101000a900473ffffffffffffffffffffffffffffffffffffffff1681565b600160009054906101000a900473ffffffffffffffffffffffffffffffffffffffff1673ffffffffffffffffffffffffffffffffffffffff163373ffffffffffffffffffffffffffffffffffffffff16141515610eb057600080fd5b610eb86112f7565b82101515610ec557600080fd5b600682815481101515610ed457fe5b90600052602060002090600402016003018054806001018281610ef79190611a10565b916000526020600020900160008390919091509080519060200190610f1d929190611a3c565b50505050565b6000809054906101000a900473ffffffffffffffffffffffffffffffffffffffff1681565b6005602052816000526040600020602052806000526040600020600091509150508060000154908060010154908060020160009054906101000a900473ffffffffffffffffffffffffffffffffffffffff16905083565b610fa7611942565b610faf611abc565b610fb7611942565b60008085111515610fc757600080fd5b8585111515610fd557600080fd5b6254600086860311151515610fe957600080fd5b600360008881526020019081526020016000206000600260008a81526020019081526020016000205481526020019081526020016000206080604051908101604052908160008201548152602001600182015481526020016002820154815260200160038201548152505092505b84836060015111156110c65760036000888152602001908152602001600020600084600001518152602001908152602001600020608060405190810160405290816000820154815260200160018201548152602001600282015481526020016003820154815250509250611057565b604080518059106110d45750595b90808252806020026020018201604052509150600090505b858360600151101515611185578260600151828281518110151561110c57fe5b90602001906020020181815250506003600088815260200190815260200160002060008460000151815260200190815260200160002060806040519081016040529081600082015481526020016001820154815260200160028201548152602001600382015481525050925080806001019150506110ec565b8193505050509392505050565b600080600061119f611ae5565b6006858154811015156111ae57fe5b906000526020600020906004020160806040519081016040529081600082015481526020016001820154815260200160028201546000191660001916815260200160038201805480602002602001604051908101604052809291908181526020016000905b828210156112d057838290600052602060002090018054600181600116156101000203166002900480601f0160208091040260200160405190810160405280929190818152602001828054600181600116156101000203166002900480156112bc5780601f10611291576101008083540402835291602001916112bc565b820191906000526020600020905b81548152906001019060200180831161129f57829003601f168201915b505050505081526020019060010190611213565b50505050815250509050806000015181602001518260400151935093509350509193909250565b6000600680549050905090565b600061130e611ae5565b60008060008511151561132057600080fd5b60068681548110151561132f57fe5b906000526020600020906004020160806040519081016040529081600082015481526020016001820154815260200160028201546000191660001916815260200160038201805480602002602001604051908101604052809291908181526020016000905b8282101561145157838290600052602060002090018054600181600116156101000203166002900480601f01602080910402602001604051908101604052809291908181526020018280546001816001161561010002031660029004801561143d5780601f106114125761010080835404028352916020019161143d565b820191906000526020600020905b81548152906001019060200180831161142057829003601f168201915b505050505081526020019060010190611394565b50505050815250509250600760009054906101000a900473ffffffffffffffffffffffffffffffffffffffff1673ffffffffffffffffffffffffffffffffffffffff16632387e3e684604001516000604051602001526040518263ffffffff167c0100000000000000000000000000000000000000000000000000000000028152600401808260001916600019168152602001915050602060405180830381600087803b151561150057600080fd5b6102c65a03f1151561151157600080fd5b505050604051805190506103e8806103e8806103e88060648a602001510202020202020281151561153e57fe5b049150848202905080935050505092915050565b60008060008411151561156457600080fd5b60008311151561157357600080fd5b6003600086815260200190815260200160002060006002600088815260200190815260200160002054815260200190815260200160002091506115ea82608060405190810160405290816000820154815260200160018201548152602001600282015481526020016003820154815250508561180a565b15611600576115fb8583868661182c565b611772565b5b83826003015410151561163d57600360008681526020019081526020016000206000836000015481526020019081526020016000209150611601565b6003600086815260200190815260200160002060008360010154815260200190815260200160002090506116db8260806040519081016040529081600082015481526020016001820154815260200160028201548152602001600382015481525050858584608060405190810160405290816000820154815260200160018201548152602001600282015481526020016003820154815250506118c9565b15156116e657600080fd5b838260010181905550838160000181905550608060405190810160405280836003015481526020018260030154815260200184815260200185815250600360008781526020019081526020016000206000868152602001908152602001600020600082015181600001556020820151816001015560408201518160020155606082015181600301559050505b5050505050565b6080604051908101604052806000815260200160008152602001600081526020016000815250600360008381526020019081526020016000206000808152602001908152602001600020600082015181600001556020820151816001015560408201518160020155606082015181600301559050506000600260008381526020019081526020016000208190555050565b600081836060015110156118215760019050611826565b600090505b92915050565b8183600101819055506080604051908101604052808460030154815260200160008152602001828152602001838152506003600086815260200190815260200160002060008481526020019081526020016000206000820151816000015560208201518160010155604082015181600201556060820151816003015590505081600260008681526020019081526020016000208190555050505050565b600083856040015186606001510111156118e65760009050611902565b816060015183850111156118fd5760009050611902565b600190505b949350505050565b6060604051908101604052806000815260200160008152602001600073ffffffffffffffffffffffffffffffffffffffff1681525090565b602060405190810160405280600081525090565b602060405190810160405280600081525090565b815481835581811511611997576004028160040283600052602060002091820191016119969190611b17565b5b505050565b8280548282559060005260206000209081019282156119eb579160200282015b828111156119ea5782518290805190602001906119da929190611b5e565b50916020019190600101906119bc565b5b5090506119f89190611bde565b5090565b602060405190810160405280600081525090565b815481835581811511611a3757818360005260206000209182019101611a369190611bde565b5b505050565b828054600181600116156101000203166002900490600052602060002090601f016020900481019282601f10611a7d57805160ff1916838001178555611aab565b82800160010185558215611aab579182015b82811115611aaa578251825591602001919060010190611a8f565b5b509050611ab89190611c0a565b5090565b608060405190810160405280600081526020016000815260200160008152602001600081525090565b608060405190810160405280600081526020016000815260200160008019168152602001611b11611c2f565b81525090565b611b5b91905b80821115611b575760008082016000905560018201600090556002820160009055600382016000611b4e9190611c43565b50600401611b1d565b5090565b90565b828054600181600116156101000203166002900490600052602060002090601f016020900481019282601f10611b9f57805160ff1916838001178555611bcd565b82800160010185558215611bcd579182015b82811115611bcc578251825591602001919060010190611bb1565b5b509050611bda9190611c0a565b5090565b611c0791905b80821115611c035760008181611bfa9190611c64565b50600101611be4565b5090565b90565b611c2c91905b80821115611c28576000816000905550600101611c10565b5090565b90565b602060405190810160405280600081525090565b5080546000825590600052602060002090810190611c619190611bde565b50565b50805460018160011615610100020316600290046000825580601f10611c8a5750611ca9565b601f016020900490600052602060002090810190611ca89190611c0a565b5b50565b806000806101000a81548173ffffffffffffffffffffffffffffffffffffffff021916908373ffffffffffffffffffffffffffffffffffffffff160217905550505600a165627a7a72305820347e02c66b690becb6e5f632fbd3bd872308a60b876c29b681a302863896fc370029a165627a7a72305820850672de79fcac9993ee69c917ee5236ddbdb87291b588990104f89c55e9e9db0029a165627a7a72305820245099c3982f4b079a48e0ceb1c8e6dc423fffbad5ce60b21e59540b884b6dfd0029",
  "source": "pragma solidity ^0.4.18;\r\n\r\nimport \"./Company.sol\";\r\n\r\ncontract CompanyFactory {\r\n    address public exchangeContract;\r\n    mapping(address => address[]) companies;\r\n    event CompanyCreated (address company);\r\n\r\n    function CompanyFactory(address _exchangeContract) public {\r\n        exchangeContract = _exchangeContract;\r\n    }\r\n\r\n    function addCompany(string name) public {\r\n        // Create new company.\r\n        Company newCompany = new Company(name, msg.sender, exchangeContract);\r\n\r\n        // Companies are added under a single owner.\r\n        companies[msg.sender].push(newCompany);\r\n        CompanyCreated(newCompany);\r\n    }\r\n\r\n    function getCompanies() public view returns(address[]) {\r\n        return companies[msg.sender];\r\n    }\r\n}",
  "sourcePath": "C:\\Users\\Francis\\Desktop\\latude-dev-portal\\contracts\\CompanyFactory.sol",
  "compiler": {
    "name": "solc",
    "version": "0.4.18+commit.9cf6e910.Emscripten.clang"
  },
  "schemaVersion": "1.0.1",
  "updatedAt": "2018-01-11T03:21:05.773Z"
}