{
  "contractName": "ExchangeRates",
  "abi": [
    {
      "constant": false,
      "inputs": [],
      "name": "terminate",
      "outputs": [],
      "payable": false,
      "stateMutability": "nonpayable",
      "type": "function"
    },
    {
      "constant": false,
      "inputs": [
        {
          "name": "newOwner",
          "type": "address"
        }
      ],
      "name": "setOwner",
      "outputs": [],
      "payable": false,
      "stateMutability": "nonpayable",
      "type": "function"
    },
    {
      "constant": true,
      "inputs": [
        {
          "name": "_currency",
          "type": "bytes32"
        }
      ],
      "name": "getCurrencyRate",
      "outputs": [
        {
          "name": "",
          "type": "uint256"
        }
      ],
      "payable": false,
      "stateMutability": "view",
      "type": "function"
    },
    {
      "constant": false,
      "inputs": [
        {
          "name": "myid",
          "type": "bytes32"
        },
        {
          "name": "currencies",
          "type": "string"
        }
      ],
      "name": "__callback",
      "outputs": [],
      "payable": false,
      "stateMutability": "nonpayable",
      "type": "function"
    },
    {
      "constant": false,
      "inputs": [
        {
          "name": "myid",
          "type": "bytes32"
        },
        {
          "name": "result",
          "type": "string"
        },
        {
          "name": "proof",
          "type": "bytes"
        }
      ],
      "name": "__callback",
      "outputs": [],
      "payable": false,
      "stateMutability": "nonpayable",
      "type": "function"
    },
    {
      "constant": true,
      "inputs": [
        {
          "name": "_currency",
          "type": "bytes32"
        }
      ],
      "name": "isCurrencyAllowed",
      "outputs": [
        {
          "name": "",
          "type": "bool"
        }
      ],
      "payable": false,
      "stateMutability": "view",
      "type": "function"
    },
    {
      "constant": true,
      "inputs": [],
      "name": "owner",
      "outputs": [
        {
          "name": "",
          "type": "address"
        }
      ],
      "payable": false,
      "stateMutability": "view",
      "type": "function"
    },
    {
      "constant": true,
      "inputs": [],
      "name": "authority",
      "outputs": [
        {
          "name": "",
          "type": "address"
        }
      ],
      "payable": false,
      "stateMutability": "view",
      "type": "function"
    },
    {
      "constant": false,
      "inputs": [
        {
          "name": "newDelay",
          "type": "uint256"
        }
      ],
      "name": "setDelay",
      "outputs": [],
      "payable": false,
      "stateMutability": "nonpayable",
      "type": "function"
    },
    {
      "inputs": [],
      "payable": true,
      "stateMutability": "payable",
      "type": "constructor"
    }
  ],
  "bytecode": "0x606060405233600660006101000a81548173ffffffffffffffffffffffffffffffffffffffff021916908373ffffffffffffffffffffffffffffffffffffffff160217905550603c600781905550736f485c8bf6fc43ea212e93bbf8ce046c7f1cb4756000806101000a81548173ffffffffffffffffffffffffffffffffffffffff021916908373ffffffffffffffffffffffffffffffffffffffff160217905550620000bf620000c56401000000000262000c41176401000000009004565b62000c9d565b60006200017b6007546040805190810160405280600381526020017f55524c0000000000000000000000000000000000000000000000000000000000815250606060405190810160405280603681526020017f6a736f6e2868747470733a2f2f776562796670696d79712e6c6f63616c74756e81526020017f6e656c2e6d652f63757272656e6379292e726174657300000000000000000000815250620001b46401000000000262000ebf176401000000009004565b90506001600a6000836000191660001916815260200190815260200160002060006101000a81548160ff02191690831515021790555050565b60008060008060009054906101000a900473ffffffffffffffffffffffffffffffffffffffff1673ffffffffffffffffffffffffffffffffffffffff1614806200023d575060006200023b6000809054906101000a900473ffffffffffffffffffffffffffffffffffffffff16620006366401000000000262001302176401000000009004565b145b15620002655762000263600062000641640100000000026200130d176401000000009004565b505b6000809054906101000a900473ffffffffffffffffffffffffffffffffffffffff1673ffffffffffffffffffffffffffffffffffffffff166338cc48316000604051602001526040518163ffffffff167c0100000000000000000000000000000000000000000000000000000000028152600401602060405180830381600087803b1515620002f357600080fd5b6102c65a03f115156200030557600080fd5b50505060405180519050600160006101000a81548173ffffffffffffffffffffffffffffffffffffffff021916908373ffffffffffffffffffffffffffffffffffffffff160217905550600160009054906101000a900473ffffffffffffffffffffffffffffffffffffffff1673ffffffffffffffffffffffffffffffffffffffff1663524f3889856000604051602001526040518263ffffffff167c01000000000000000000000000000000000000000000000000000000000281526004018080602001828103825283818151815260200191508051906020019080838360005b8381101562000404578082015181840152602081019050620003e7565b50505050905090810190601f168015620004325780820380516001836020036101000a031916815260200191505b5092505050602060405180830381600087803b15156200045157600080fd5b6102c65a03f115156200046357600080fd5b50505060405180519050905062030d403a02670de0b6b3a7640000018111156200049457600060010291506200062e565b600160009054906101000a900473ffffffffffffffffffffffffffffffffffffffff1673ffffffffffffffffffffffffffffffffffffffff1663adf59f99828787876000604051602001526040518563ffffffff167c0100000000000000000000000000000000000000000000000000000000028152600401808481526020018060200180602001838103835285818151815260200191508051906020019080838360005b838110156200055657808201518184015260208101905062000539565b50505050905090810190601f168015620005845780820380516001836020036101000a031916815260200191505b50838103825284818151815260200191508051906020019080838360005b83811015620005bf578082015181840152602081019050620005a2565b50505050905090810190601f168015620005ed5780820380516001836020036101000a031916815260200191505b50955050505050506020604051808303818588803b15156200060e57600080fd5b6125ee5a03f115156200062057600080fd5b505050506040518051905091505b509392505050565b6000813b9050919050565b60008062000677731d3b2638a7cc9f2cb3d298a3da7a90b67e5506ed620006366401000000000262001302176401000000009004565b11156200073057731d3b2638a7cc9f2cb3d298a3da7a90b67e5506ed6000806101000a81548173ffffffffffffffffffffffffffffffffffffffff021916908373ffffffffffffffffffffffffffffffffffffffff160217905550620007266040805190810160405280600b81526020017f6574685f6d61696e6e657400000000000000000000000000000000000000000081525062000bd2640100000000026200179e176401000000009004565b6001905062000bcd565b60006200076573c03a2615d5efaf5f49f60b7bb6583eaec212fdf1620006366401000000000262001302176401000000009004565b11156200081e5773c03a2615d5efaf5f49f60b7bb6583eaec212fdf16000806101000a81548173ffffffffffffffffffffffffffffffffffffffff021916908373ffffffffffffffffffffffffffffffffffffffff160217905550620008146040805190810160405280600c81526020017f6574685f726f707374656e33000000000000000000000000000000000000000081525062000bd2640100000000026200179e176401000000009004565b6001905062000bcd565b60006200085373b7a07bcf2ba2f2703b24c0691b5278999c59ac7e620006366401000000000262001302176401000000009004565b11156200090c5773b7a07bcf2ba2f2703b24c0691b5278999c59ac7e6000806101000a81548173ffffffffffffffffffffffffffffffffffffffff021916908373ffffffffffffffffffffffffffffffffffffffff160217905550620009026040805190810160405280600981526020017f6574685f6b6f76616e000000000000000000000000000000000000000000000081525062000bd2640100000000026200179e176401000000009004565b6001905062000bcd565b60006200094173146500cfd35b22e4a392fe0adc06de1a1368ed48620006366401000000000262001302176401000000009004565b1115620009fa5773146500cfd35b22e4a392fe0adc06de1a1368ed486000806101000a81548173ffffffffffffffffffffffffffffffffffffffff021916908373ffffffffffffffffffffffffffffffffffffffff160217905550620009f06040805190810160405280600b81526020017f6574685f72696e6b65627900000000000000000000000000000000000000000081525062000bd2640100000000026200179e176401000000009004565b6001905062000bcd565b600062000a2f736f485c8bf6fc43ea212e93bbf8ce046c7f1cb475620006366401000000000262001302176401000000009004565b111562000a9457736f485c8bf6fc43ea212e93bbf8ce046c7f1cb4756000806101000a81548173ffffffffffffffffffffffffffffffffffffffff021916908373ffffffffffffffffffffffffffffffffffffffff1602179055506001905062000bcd565b600062000ac97320e12a1f859b3feae5fb2a0a32c18f5a65555bbf620006366401000000000262001302176401000000009004565b111562000b2e577320e12a1f859b3feae5fb2a0a32c18f5a65555bbf6000806101000a81548173ffffffffffffffffffffffffffffffffffffffff021916908373ffffffffffffffffffffffffffffffffffffffff1602179055506001905062000bcd565b600062000b637351efaf4c8b3c9afbd5ab9f4bbc82784ab6ef8faa620006366401000000000262001302176401000000009004565b111562000bc8577351efaf4c8b3c9afbd5ab9f4bbc82784ab6ef8faa6000806101000a81548173ffffffffffffffffffffffffffffffffffffffff021916908373ffffffffffffffffffffffffffffffffffffffff1602179055506001905062000bcd565b600090505b919050565b806002908051906020019062000bea92919062000bee565b5050565b828054600181600116156101000203166002900490600052602060002090601f016020900481019282601f1062000c3157805160ff191683800117855562000c62565b8280016001018555821562000c62579182015b8281111562000c6157825182559160200191906001019062000c44565b5b50905062000c71919062000c75565b5090565b62000c9a91905b8082111562000c9657600081600090555060010162000c7c565b5090565b90565b6118cb8062000cad6000396000f300606060405260043610610099576000357c0100000000000000000000000000000000000000000000000000000000900463ffffffff1680630c08bf881461009e57806313af4035146100b35780632387e3e6146100ec57806327dc297e1461012757806338bbfa50146101915780634f69a4191461023e5780638da5cb5b1461027d578063bf7e214f146102d2578063e177246e14610327575b600080fd5b34156100a957600080fd5b6100b161034a565b005b34156100be57600080fd5b6100ea600480803573ffffffffffffffffffffffffffffffffffffffff169060200190919050506103e1565b005b34156100f757600080fd5b6101116004808035600019169060200190919050506104bd565b6040518082815260200191505060405180910390f35b341561013257600080fd5b61018f60048080356000191690602001909190803590602001908201803590602001908080601f016020809104026020016040519081016040528093929190818152602001838380828437820191505050505050919050506104e2565b005b341561019c57600080fd5b61023c60048080356000191690602001909190803590602001908201803590602001908080601f0160208091040260200160405190810160405280939291908181526020018383808284378201915050505050509190803590602001908201803590602001908080601f01602080910402602001604051908101604052809392919081815260200183838082843782019150505050505091905050610710565b005b341561024957600080fd5b610263600480803560001916906020019091905050610715565b604051808215151515815260200191505060405180910390f35b341561028857600080fd5b610290610747565b604051808273ffffffffffffffffffffffffffffffffffffffff1673ffffffffffffffffffffffffffffffffffffffff16815260200191505060405180910390f35b34156102dd57600080fd5b6102e561076d565b604051808273ffffffffffffffffffffffffffffffffffffffff1673ffffffffffffffffffffffffffffffffffffffff16815260200191505060405180910390f35b341561033257600080fd5b6103486004808035906020019091905050610793565b005b600660009054906101000a900473ffffffffffffffffffffffffffffffffffffffff1673ffffffffffffffffffffffffffffffffffffffff163373ffffffffffffffffffffffffffffffffffffffff161415156103a657600080fd5b600660009054906101000a900473ffffffffffffffffffffffffffffffffffffffff1673ffffffffffffffffffffffffffffffffffffffff16ff5b600660009054906101000a900473ffffffffffffffffffffffffffffffffffffffff1673ffffffffffffffffffffffffffffffffffffffff163373ffffffffffffffffffffffffffffffffffffffff1614151561043d57600080fd5b600073ffffffffffffffffffffffffffffffffffffffff168173ffffffffffffffffffffffffffffffffffffffff161415151561047957600080fd5b80600660006101000a81548173ffffffffffffffffffffffffffffffffffffffff021916908373ffffffffffffffffffffffffffffffffffffffff16021790555050565b6000600860008360001916600019168152602001908152602001600020549050919050565b6104ea6117b8565b6104f26117b8565b6000806104fd6117d2565b6105056117b8565b61050d6117b8565b60006105176117d2565b600a60008c6000191660001916815260200190815260200160002060009054906101000a900460ff16151561054b57600080fd5b600a60008c6000191660001916815260200190815260200160002060006101000a81549060ff021916905561057f8a6107f9565b98506105bf6040805190810160405280600181526020017f7c000000000000000000000000000000000000000000000000000000000000008152506107f9565b975060016105d6898b61082790919063ffffffff16565b019650600095505b868610156106fb576106016105fc898b61089e90919063ffffffff16565b6108b8565b945061060c856107f9565b935061064c6040805190810160405280600181526020017f3b000000000000000000000000000000000000000000000000000000000000008152506107f9565b925061067161066c610667858761089e90919063ffffffff16565b6108b8565b610916565b915061068e610689848661089e90919063ffffffff16565b6108b8565b905061069b816002610947565b60086000846000191660001916815260200190815260200160002081905550600160096000846000191660001916815260200190815260200160002060006101000a81548160ff02191690831515021790555085806001019650506105de565b610703610c41565b5050505050505050505050565b505050565b600060096000836000191660001916815260200190815260200160002060009054906101000a900460ff169050919050565b600660009054906101000a900473ffffffffffffffffffffffffffffffffffffffff1681565b600560009054906101000a900473ffffffffffffffffffffffffffffffffffffffff1681565b600660009054906101000a900473ffffffffffffffffffffffffffffffffffffffff1673ffffffffffffffffffffffffffffffffffffffff163373ffffffffffffffffffffffffffffffffffffffff161415156107ef57600080fd5b8060078190555050565b6108016117b8565b600060208301905060408051908101604052808451815260200182815250915050919050565b600080826000015161084b8560000151866020015186600001518760200151610d1a565b0190505b836000015184602001510181111515610897578180600101925050826000015161088f856020015183038660000151038386600001518760200151610d1a565b01905061084f565b5092915050565b6108a66117b8565b6108b1838383610dd6565b5092915050565b6108c06117d2565b6108c86117d2565b600083600001516040518059106108dc5750595b9080825280601f01601f1916602001820160405250915060208201905061090c8185602001518660000151610e74565b8192505050919050565b60006109206117e6565b8290506000815114156109395760006001029150610941565b602083015191505b50919050565b60006109516117e6565b60008060008693506000925060009150600090505b8351811015610c225760307f01000000000000000000000000000000000000000000000000000000000000000284828151811015156109a157fe5b9060200101517f010000000000000000000000000000000000000000000000000000000000000090047f0100000000000000000000000000000000000000000000000000000000000000027effffffffffffffffffffffffffffffffffffffffffffffffffffffffffffff191610158015610ab9575060397f0100000000000000000000000000000000000000000000000000000000000000028482815181101515610a4957fe5b9060200101517f010000000000000000000000000000000000000000000000000000000000000090047f0100000000000000000000000000000000000000000000000000000000000000027effffffffffffffffffffffffffffffffffffffffffffffffffffffffffffff191611155b15610b6a578115610adc576000861415610ad257610c22565b8580600190039650505b600a8302925060308482815181101515610af257fe5b9060200101517f010000000000000000000000000000000000000000000000000000000000000090047f0100000000000000000000000000000000000000000000000000000000000000027f010000000000000000000000000000000000000000000000000000000000000090040383019250610c15565b602e7f0100000000000000000000000000000000000000000000000000000000000000028482815181101515610b9c57fe5b9060200101517f010000000000000000000000000000000000000000000000000000000000000090047f0100000000000000000000000000000000000000000000000000000000000000027effffffffffffffffffffffffffffffffffffffffffffffffffffffffffffff19161415610c1457600191505b5b8080600101915050610966565b6000861115610c345785600a0a830292505b8294505050505092915050565b6000610ce16007546040805190810160405280600381526020017f55524c0000000000000000000000000000000000000000000000000000000000815250606060405190810160405280603681526020017f6a736f6e2868747470733a2f2f776562796670696d79712e6c6f63616c74756e81526020017f6e656c2e6d652f63757272656e6379292e726174657300000000000000000000815250610ebf565b90506001600a6000836000191660001916815260200190815260200160002060006101000a81548160ff02191690831515021790555050565b60008060008060008887111515610dc457602087111515610d7b5760018760200360080260020a031980875116888b038a018a96505b818388511614610d7057600187019650806001880310610d50578b8b0196505b505050839450610dca565b8686209150879350600092505b86890383111515610dc3578684209050806000191682600019161415610db057839450610dca565b6001840193508280600101935050610d88565b5b88880194505b50505050949350505050565b610dde6117b8565b6000610dfc8560000151866020015186600001518760200151610d1a565b90508460200151836020018181525050846020015181038360000181815250508460000151856020015101811415610e3e576000856000018181525050610e69565b8360000151836000015101856000018181510391508181525050836000015181018560200181815250505b829150509392505050565b60005b602082101515610e9c5782518452602084019350602083019250602082039150610e77565b6001826020036101000a0390508019835116818551168181178652505050505050565b60008060008060009054906101000a900473ffffffffffffffffffffffffffffffffffffffff1673ffffffffffffffffffffffffffffffffffffffff161480610f3157506000610f2f6000809054906101000a900473ffffffffffffffffffffffffffffffffffffffff16611302565b145b15610f4257610f40600061130d565b505b6000809054906101000a900473ffffffffffffffffffffffffffffffffffffffff1673ffffffffffffffffffffffffffffffffffffffff166338cc48316000604051602001526040518163ffffffff167c0100000000000000000000000000000000000000000000000000000000028152600401602060405180830381600087803b1515610fcf57600080fd5b6102c65a03f11515610fe057600080fd5b50505060405180519050600160006101000a81548173ffffffffffffffffffffffffffffffffffffffff021916908373ffffffffffffffffffffffffffffffffffffffff160217905550600160009054906101000a900473ffffffffffffffffffffffffffffffffffffffff1673ffffffffffffffffffffffffffffffffffffffff1663524f3889856000604051602001526040518263ffffffff167c01000000000000000000000000000000000000000000000000000000000281526004018080602001828103825283818151815260200191508051906020019080838360005b838110156110dd5780820151818401526020810190506110c2565b50505050905090810190601f16801561110a5780820380516001836020036101000a031916815260200191505b5092505050602060405180830381600087803b151561112857600080fd5b6102c65a03f1151561113957600080fd5b50505060405180519050905062030d403a02670de0b6b3a76400000181111561116857600060010291506112fa565b600160009054906101000a900473ffffffffffffffffffffffffffffffffffffffff1673ffffffffffffffffffffffffffffffffffffffff1663adf59f99828787876000604051602001526040518563ffffffff167c0100000000000000000000000000000000000000000000000000000000028152600401808481526020018060200180602001838103835285818151815260200191508051906020019080838360005b8381101561122857808201518184015260208101905061120d565b50505050905090810190601f1680156112555780820380516001836020036101000a031916815260200191505b50838103825284818151815260200191508051906020019080838360005b8381101561128e578082015181840152602081019050611273565b50505050905090810190601f1680156112bb5780820380516001836020036101000a031916815260200191505b50955050505050506020604051808303818588803b15156112db57600080fd5b6125ee5a03f115156112ec57600080fd5b505050506040518051905091505b509392505050565b6000813b9050919050565b60008061132d731d3b2638a7cc9f2cb3d298a3da7a90b67e5506ed611302565b11156113ce57731d3b2638a7cc9f2cb3d298a3da7a90b67e5506ed6000806101000a81548173ffffffffffffffffffffffffffffffffffffffff021916908373ffffffffffffffffffffffffffffffffffffffff1602179055506113c56040805190810160405280600b81526020017f6574685f6d61696e6e657400000000000000000000000000000000000000000081525061179e565b60019050611799565b60006113ed73c03a2615d5efaf5f49f60b7bb6583eaec212fdf1611302565b111561148e5773c03a2615d5efaf5f49f60b7bb6583eaec212fdf16000806101000a81548173ffffffffffffffffffffffffffffffffffffffff021916908373ffffffffffffffffffffffffffffffffffffffff1602179055506114856040805190810160405280600c81526020017f6574685f726f707374656e33000000000000000000000000000000000000000081525061179e565b60019050611799565b60006114ad73b7a07bcf2ba2f2703b24c0691b5278999c59ac7e611302565b111561154e5773b7a07bcf2ba2f2703b24c0691b5278999c59ac7e6000806101000a81548173ffffffffffffffffffffffffffffffffffffffff021916908373ffffffffffffffffffffffffffffffffffffffff1602179055506115456040805190810160405280600981526020017f6574685f6b6f76616e000000000000000000000000000000000000000000000081525061179e565b60019050611799565b600061156d73146500cfd35b22e4a392fe0adc06de1a1368ed48611302565b111561160e5773146500cfd35b22e4a392fe0adc06de1a1368ed486000806101000a81548173ffffffffffffffffffffffffffffffffffffffff021916908373ffffffffffffffffffffffffffffffffffffffff1602179055506116056040805190810160405280600b81526020017f6574685f72696e6b65627900000000000000000000000000000000000000000081525061179e565b60019050611799565b600061162d736f485c8bf6fc43ea212e93bbf8ce046c7f1cb475611302565b111561169057736f485c8bf6fc43ea212e93bbf8ce046c7f1cb4756000806101000a81548173ffffffffffffffffffffffffffffffffffffffff021916908373ffffffffffffffffffffffffffffffffffffffff16021790555060019050611799565b60006116af7320e12a1f859b3feae5fb2a0a32c18f5a65555bbf611302565b1115611712577320e12a1f859b3feae5fb2a0a32c18f5a65555bbf6000806101000a81548173ffffffffffffffffffffffffffffffffffffffff021916908373ffffffffffffffffffffffffffffffffffffffff16021790555060019050611799565b60006117317351efaf4c8b3c9afbd5ab9f4bbc82784ab6ef8faa611302565b1115611794577351efaf4c8b3c9afbd5ab9f4bbc82784ab6ef8faa6000806101000a81548173ffffffffffffffffffffffffffffffffffffffff021916908373ffffffffffffffffffffffffffffffffffffffff16021790555060019050611799565b600090505b919050565b80600290805190602001906117b49291906117fa565b5050565b604080519081016040528060008152602001600081525090565b602060405190810160405280600081525090565b602060405190810160405280600081525090565b828054600181600116156101000203166002900490600052602060002090601f016020900481019282601f1061183b57805160ff1916838001178555611869565b82800160010185558215611869579182015b8281111561186857825182559160200191906001019061184d565b5b509050611876919061187a565b5090565b61189c91905b80821115611898576000816000905550600101611880565b5090565b905600a165627a7a7230582093127de26543bdd883da08e79580a90eacbd083795a74681a4243a7a966a54f60029",
  "source": "pragma solidity ^0.4.18;\r\n\r\nimport \"./Authorization.sol\";\r\nimport \"./strings.sol\";\r\nimport \"./usingOraclize.sol\";\r\n\r\ncontract ExchangeRates is usingOraclize, Authorization {\r\n    using strings for *;\r\n    \r\n    uint private delay;\r\n    mapping(bytes32 => uint) private rates; \r\n    mapping(bytes32 => bool) private supportedCurrencies;\r\n    mapping(bytes32=>bool) private validIds;\r\n\r\n    function ExchangeRates() public payable {\r\n        // Initialize the delay\r\n        delay = 60;\r\n        OAR = OraclizeAddrResolverI(0x6f485C8BF6fc43eA212E93BBF8ce046C7f1cb475);\r\n        getCurrenciesRate();\r\n    }\r\n\r\n    function __callback(bytes32 myid, string currencies) public {\r\n        // Make sure the call was done through our service.\r\n        require(validIds[myid]);\r\n        delete validIds[myid];\r\n\r\n        // Try to uncomment when we'll try on geth or ropsten testrpc seems to run out of gas.\r\n        //require(msg.sender == oraclize_cbAddress());\r\n\r\n        // This flatten the whole string into an array ['l','a','t','u','d','e'].\r\n        var currenciesRateStringArray = currencies.toSlice();\r\n        var currenciesDelimiter = \"|\".toSlice();\r\n        uint numberOfParts = currenciesRateStringArray.count(currenciesDelimiter) + 1;\r\n        \r\n        // Navigate through all parts that were seperated with an |.\r\n        for (uint i = 0; i < numberOfParts; i++) {\r\n            var currency = currenciesRateStringArray.split(currenciesDelimiter).toString();    \r\n            var currencyStringArray = currency.toSlice();\r\n            // Slice the CAD;398.05\r\n            var currencyDelimeter = \";\".toSlice();\r\n            \r\n            bytes32 sigle = stringToBytes32(currencyStringArray.split(currencyDelimeter).toString());\r\n            string memory price = currencyStringArray.split(currencyDelimeter).toString();\r\n            \r\n            rates[sigle] = parseInt(price,2);\r\n            supportedCurrencies[sigle] = true;\r\n        }\r\n        \r\n        getCurrenciesRate();\r\n    }\r\n\r\n    function getCurrenciesRate() internal {\r\n        bytes32 queryId = oraclize_query(delay, \"URL\", \"json(https://webyfpimyq.localtunnel.me/currency).rates\");\r\n        validIds[queryId] = true;\r\n    }\r\n\r\n    function getCurrencyRate(bytes32 _currency) public view returns(uint) {\r\n        return rates[_currency];\r\n    }\r\n    \r\n    function isCurrencyAllowed(bytes32 _currency) public view returns(bool) {\r\n        return supportedCurrencies[_currency];\r\n    }\r\n\r\n    function setDelay(uint newDelay) onlyOwner public {\r\n        delay = newDelay;\r\n    }\r\n    \r\n    function stringToBytes32(string memory source) private pure returns (bytes32 result) {\r\n        bytes memory tempEmptyStringTest = bytes(source);\r\n        if (tempEmptyStringTest.length == 0) {\r\n           return 0x0;\r\n        }\r\n\r\n        assembly {\r\n            result := mload(add(source, 32))\r\n        }\r\n    }\r\n}",
  "sourcePath": "C:\\Users\\Francis\\Desktop\\latude-dev-portal\\contracts\\ExchangeRates.sol",
  "compiler": {
    "name": "solc",
    "version": "0.4.18+commit.9cf6e910.Emscripten.clang"
  },
  "schemaVersion": "1.0.1",
  "updatedAt": "2017-11-23T05:04:42.837Z"
}