{
  "contractName": "Property",
  "abi": [
    {
      "constant": true,
      "inputs": [],
      "name": "name",
      "outputs": [
        {
          "name": "",
          "type": "string"
        }
      ],
      "payable": false,
      "stateMutability": "view",
      "type": "function"
    },
    {
      "constant": false,
      "inputs": [],
      "name": "terminate",
      "outputs": [],
      "payable": false,
      "stateMutability": "nonpayable",
      "type": "function"
    },
    {
      "constant": false,
      "inputs": [
        {
          "name": "assetId",
          "type": "uint256"
        },
        {
          "name": "startTime",
          "type": "uint256"
        },
        {
          "name": "endTime",
          "type": "uint256"
        }
      ],
      "name": "addStay",
      "outputs": [],
      "payable": true,
      "stateMutability": "payable",
      "type": "function"
    },
    {
      "constant": false,
      "inputs": [
        {
          "name": "newOwner",
          "type": "address"
        }
      ],
      "name": "setOwner",
      "outputs": [],
      "payable": false,
      "stateMutability": "nonpayable",
      "type": "function"
    },
    {
      "constant": true,
      "inputs": [
        {
          "name": "assetId",
          "type": "uint256"
        },
        {
          "name": "stayId",
          "type": "uint256"
        }
      ],
      "name": "getStay",
      "outputs": [
        {
          "name": "",
          "type": "uint256"
        },
        {
          "name": "",
          "type": "uint256"
        },
        {
          "name": "",
          "type": "address"
        }
      ],
      "payable": false,
      "stateMutability": "view",
      "type": "function"
    },
    {
      "constant": true,
      "inputs": [
        {
          "name": "assetId",
          "type": "uint256"
        },
        {
          "name": "from",
          "type": "uint256"
        },
        {
          "name": "to",
          "type": "uint256"
        }
      ],
      "name": "getStays",
      "outputs": [
        {
          "name": "",
          "type": "uint256[]"
        }
      ],
      "payable": false,
      "stateMutability": "view",
      "type": "function"
    },
    {
      "constant": false,
      "inputs": [
        {
          "name": "price",
          "type": "uint256"
        },
        {
          "name": "currency",
          "type": "bytes32"
        }
      ],
      "name": "addAsset",
      "outputs": [],
      "payable": false,
      "stateMutability": "nonpayable",
      "type": "function"
    },
    {
      "constant": true,
      "inputs": [
        {
          "name": "id",
          "type": "uint256"
        }
      ],
      "name": "lastMetadataHashForAsset",
      "outputs": [
        {
          "name": "",
          "type": "string"
        }
      ],
      "payable": false,
      "stateMutability": "view",
      "type": "function"
    },
    {
      "constant": true,
      "inputs": [],
      "name": "owner",
      "outputs": [
        {
          "name": "",
          "type": "address"
        }
      ],
      "payable": false,
      "stateMutability": "view",
      "type": "function"
    },
    {
      "constant": false,
      "inputs": [
        {
          "name": "id",
          "type": "uint256"
        },
        {
          "name": "hash",
          "type": "string"
        }
      ],
      "name": "addMetadataHashForAsset",
      "outputs": [],
      "payable": false,
      "stateMutability": "nonpayable",
      "type": "function"
    },
    {
      "constant": true,
      "inputs": [],
      "name": "authority",
      "outputs": [
        {
          "name": "",
          "type": "address"
        }
      ],
      "payable": false,
      "stateMutability": "view",
      "type": "function"
    },
    {
      "constant": true,
      "inputs": [
        {
          "name": "",
          "type": "uint256"
        },
        {
          "name": "",
          "type": "uint256"
        }
      ],
      "name": "stays",
      "outputs": [
        {
          "name": "startTime",
          "type": "uint256"
        },
        {
          "name": "endTime",
          "type": "uint256"
        },
        {
          "name": "user",
          "type": "address"
        }
      ],
      "payable": false,
      "stateMutability": "view",
      "type": "function"
    },
    {
      "constant": true,
      "inputs": [
        {
          "name": "assetId",
          "type": "uint256"
        },
        {
          "name": "from",
          "type": "uint256"
        },
        {
          "name": "to",
          "type": "uint256"
        }
      ],
      "name": "getNodesBetween",
      "outputs": [
        {
          "name": "",
          "type": "uint256[]"
        }
      ],
      "payable": false,
      "stateMutability": "view",
      "type": "function"
    },
    {
      "constant": true,
      "inputs": [
        {
          "name": "id",
          "type": "uint256"
        }
      ],
      "name": "getAsset",
      "outputs": [
        {
          "name": "",
          "type": "uint256"
        },
        {
          "name": "",
          "type": "uint256"
        },
        {
          "name": "",
          "type": "bytes32"
        }
      ],
      "payable": false,
      "stateMutability": "view",
      "type": "function"
    },
    {
      "constant": true,
      "inputs": [],
      "name": "numberOfAssets",
      "outputs": [
        {
          "name": "",
          "type": "uint256"
        }
      ],
      "payable": false,
      "stateMutability": "view",
      "type": "function"
    },
    {
      "constant": true,
      "inputs": [
        {
          "name": "assetId",
          "type": "uint256"
        },
        {
          "name": "stayDurationInDays",
          "type": "uint256"
        }
      ],
      "name": "getStayPriceInWei",
      "outputs": [
        {
          "name": "",
          "type": "uint256"
        }
      ],
      "payable": false,
      "stateMutability": "view",
      "type": "function"
    },
    {
      "inputs": [
        {
          "name": "_name",
          "type": "string"
        },
        {
          "name": "_owner",
          "type": "address"
        },
        {
          "name": "_exchangeContract",
          "type": "address"
        }
      ],
      "payable": true,
      "stateMutability": "payable",
      "type": "constructor"
    }
  ],
  "bytecode": "0x606060405260405162001fc038038062001fc08339810160405280805182019190602001805190602001909190805190602001909190505033600160006101000a81548173ffffffffffffffffffffffffffffffffffffffff021916908373ffffffffffffffffffffffffffffffffffffffff16021790555062000097826200013b64010000000002620008eb176401000000009004565b620000d8600860009054906101000a900473ffffffffffffffffffffffffffffffffffffffff16620002196401000000000262001c36176401000000009004565b8260049080519060200190620000f09291906200025c565b5080600760006101000a81548173ffffffffffffffffffffffffffffffffffffffff021916908373ffffffffffffffffffffffffffffffffffffffff1602179055505050506200030b565b600160009054906101000a900473ffffffffffffffffffffffffffffffffffffffff1673ffffffffffffffffffffffffffffffffffffffff163373ffffffffffffffffffffffffffffffffffffffff161415156200019857600080fd5b600073ffffffffffffffffffffffffffffffffffffffff168173ffffffffffffffffffffffffffffffffffffffff1614151515620001d557600080fd5b80600160006101000a81548173ffffffffffffffffffffffffffffffffffffffff021916908373ffffffffffffffffffffffffffffffffffffffff16021790555050565b806000806101000a81548173ffffffffffffffffffffffffffffffffffffffff021916908373ffffffffffffffffffffffffffffffffffffffff16021790555050565b828054600181600116156101000203166002900490600052602060002090601f016020900481019282601f106200029f57805160ff1916838001178555620002d0565b82800160010185558215620002d0579182015b82811115620002cf578251825591602001919060010190620002b2565b5b509050620002df9190620002e3565b5090565b6200030891905b8082111562000304576000816000905550600101620002ea565b5090565b90565b611ca5806200031b6000396000f3006060604052600436106100e6576000357c0100000000000000000000000000000000000000000000000000000000900463ffffffff16806306fdde03146100eb5780630c08bf88146101795780630fa467a61461018e57806313af4035146101b85780634fa756a9146101f1578063553fb24c1461026b5780637ec511fd146102f55780638c59df8e146103255780638da5cb5b146103c157806396173b6a14610416578063bf7e214f1461047c578063c77b7c91146104d1578063c804b4961461054b578063eac8f5b8146105d5578063edf49c0914610622578063f904f10e1461064b575b600080fd5b34156100f657600080fd5b6100fe61068b565b6040518080602001828103825283818151815260200191508051906020019080838360005b8381101561013e578082015181840152602081019050610123565b50505050905090810190601f16801561016b5780820380516001836020036101000a031916815260200191505b509250505060405180910390f35b341561018457600080fd5b61018c610729565b005b6101b660048080359060200190919080359060200190919080359060200190919050506107c0565b005b34156101c357600080fd5b6101ef600480803573ffffffffffffffffffffffffffffffffffffffff169060200190919050506108eb565b005b34156101fc57600080fd5b61021b60048080359060200190919080359060200190919050506109c7565b604051808481526020018381526020018273ffffffffffffffffffffffffffffffffffffffff1673ffffffffffffffffffffffffffffffffffffffff168152602001935050505060405180910390f35b341561027657600080fd5b61029e6004808035906020019091908035906020019091908035906020019091905050610a8d565b6040518080602001828103825283818151815260200191508051906020019060200280838360005b838110156102e15780820151818401526020810190506102c6565b505050509050019250505060405180910390f35b341561030057600080fd5b610323600480803590602001909190803560001916906020019091905050610aa9565b005b341561033057600080fd5b6103466004808035906020019091905050610c80565b6040518080602001828103825283818151815260200191508051906020019080838360005b8381101561038657808201518184015260208101905061036b565b50505050905090810190601f1680156103b35780820380516001836020036101000a031916815260200191505b509250505060405180910390f35b34156103cc57600080fd5b6103d4610db8565b604051808273ffffffffffffffffffffffffffffffffffffffff1673ffffffffffffffffffffffffffffffffffffffff16815260200191505060405180910390f35b341561042157600080fd5b61047a600480803590602001909190803590602001908201803590602001908080601f01602080910402602001604051908101604052809392919081815260200183838082843782019150505050505091905050610dde565b005b341561048757600080fd5b61048f610ead565b604051808273ffffffffffffffffffffffffffffffffffffffff1673ffffffffffffffffffffffffffffffffffffffff16815260200191505060405180910390f35b34156104dc57600080fd5b6104fb6004808035906020019091908035906020019091905050610ed2565b604051808481526020018381526020018273ffffffffffffffffffffffffffffffffffffffff1673ffffffffffffffffffffffffffffffffffffffff168152602001935050505060405180910390f35b341561055657600080fd5b61057e6004808035906020019091908035906020019091908035906020019091905050610f29565b6040518080602001828103825283818151815260200191508051906020019060200280838360005b838110156105c15780820151818401526020810190506105a6565b505050509050019250505060405180910390f35b34156105e057600080fd5b6105f6600480803590602001909190505061111c565b604051808481526020018381526020018260001916600019168152602001935050505060405180910390f35b341561062d57600080fd5b610635611281565b6040518082815260200191505060405180910390f35b341561065657600080fd5b610675600480803590602001909190803590602001909190505061128e565b6040518082815260200191505060405180910390f35b60048054600181600116156101000203166002900480601f0160208091040260200160405190810160405280929190818152602001828054600181600116156101000203166002900480156107215780601f106106f657610100808354040283529160200191610721565b820191906000526020600020905b81548152906001019060200180831161070457829003601f168201915b505050505081565b600160009054906101000a900473ffffffffffffffffffffffffffffffffffffffff1673ffffffffffffffffffffffffffffffffffffffff163373ffffffffffffffffffffffffffffffffffffffff1614151561078557600080fd5b600160009054906101000a900473ffffffffffffffffffffffffffffffffffffffff1673ffffffffffffffffffffffffffffffffffffffff16ff5b60008083831115156107d157600080fd5b8342111515156107e057600080fd5b6018603c808686038115156107f157fe5b048115156107fb57fe5b0481151561080557fe5b049150610812858361128e565b905080341015151561082357600080fd5b61083085858686036114dc565b6060604051908101604052808581526020018481526020013373ffffffffffffffffffffffffffffffffffffffff16815250600560008781526020019081526020016000206000868152602001908152602001600020600082015181600001556020820151816001015560408201518160020160006101000a81548173ffffffffffffffffffffffffffffffffffffffff021916908373ffffffffffffffffffffffffffffffffffffffff1602179055509050505050505050565b600160009054906101000a900473ffffffffffffffffffffffffffffffffffffffff1673ffffffffffffffffffffffffffffffffffffffff163373ffffffffffffffffffffffffffffffffffffffff1614151561094757600080fd5b600073ffffffffffffffffffffffffffffffffffffffff168173ffffffffffffffffffffffffffffffffffffffff161415151561098357600080fd5b80600160006101000a81548173ffffffffffffffffffffffffffffffffffffffff021916908373ffffffffffffffffffffffffffffffffffffffff16021790555050565b60008060006109d4611894565b6005600087815260200190815260200160002060008681526020019081526020016000206060604051908101604052908160008201548152602001600182015481526020016002820160009054906101000a900473ffffffffffffffffffffffffffffffffffffffff1673ffffffffffffffffffffffffffffffffffffffff1673ffffffffffffffffffffffffffffffffffffffff16815250509050806000015181602001518260400151935093509350509250925092565b610a956118cc565b610aa0848484610f29565b90509392505050565b6000610ab36118e0565b600160009054906101000a900473ffffffffffffffffffffffffffffffffffffffff1673ffffffffffffffffffffffffffffffffffffffff163373ffffffffffffffffffffffffffffffffffffffff16141515610b0f57600080fd5b600760009054906101000a900473ffffffffffffffffffffffffffffffffffffffff1673ffffffffffffffffffffffffffffffffffffffff16634f69a419846000604051602001526040518263ffffffff167c0100000000000000000000000000000000000000000000000000000000028152600401808260001916600019168152602001915050602060405180830381600087803b1515610bb057600080fd5b6102c65a03f11515610bc157600080fd5b505050604051805190501515610bd657600080fd5b6006805490509150610be782611703565b60068054806001018281610bfb91906118f4565b91600052602060002090600402016000608060405190810160405280868152602001888152602001876000191681526020018581525090919091506000820151816000015560208201518160010155604082015181600201906000191690556060820151816003019080519060200190610c76929190611926565b5050505050505050565b610c88611986565b6000600683815481101515610c9957fe5b906000526020600020906004020160030180549050111515610cba57600080fd5b600682815481101515610cc957fe5b90600052602060002090600402016003016001600684815481101515610ceb57fe5b90600052602060002090600402016003018054905003815481101515610d0d57fe5b90600052602060002090018054600181600116156101000203166002900480601f016020809104026020016040519081016040528092919081815260200182805460018160011615610100020316600290048015610dac5780601f10610d8157610100808354040283529160200191610dac565b820191906000526020600020905b815481529060010190602001808311610d8f57829003601f168201915b50505050509050919050565b600160009054906101000a900473ffffffffffffffffffffffffffffffffffffffff1681565b600160009054906101000a900473ffffffffffffffffffffffffffffffffffffffff1673ffffffffffffffffffffffffffffffffffffffff163373ffffffffffffffffffffffffffffffffffffffff16141515610e3a57600080fd5b610e42611281565b82101515610e4f57600080fd5b600682815481101515610e5e57fe5b90600052602060002090600402016003018054806001018281610e81919061199a565b916000526020600020900160008390919091509080519060200190610ea79291906119c6565b50505050565b6000809054906101000a900473ffffffffffffffffffffffffffffffffffffffff1681565b6005602052816000526040600020602052806000526040600020600091509150508060000154908060010154908060020160009054906101000a900473ffffffffffffffffffffffffffffffffffffffff16905083565b610f316118cc565b610f39611a46565b610f416118cc565b60008085111515610f5157600080fd5b8585111515610f5f57600080fd5b6254600086860311151515610f7357600080fd5b600360008881526020019081526020016000206000600260008a81526020019081526020016000205481526020019081526020016000206080604051908101604052908160008201548152602001600182015481526020016002820154815260200160038201548152505092505b84836060015111156110505760036000888152602001908152602001600020600084600001518152602001908152602001600020608060405190810160405290816000820154815260200160018201548152602001600282015481526020016003820154815250509250610fe1565b6040805180591061105e5750595b90808252806020026020018201604052509150600090505b85836060015110151561110f578260600151828281518110151561109657fe5b9060200190602002018181525050600360008881526020019081526020016000206000846000015181526020019081526020016000206080604051908101604052908160008201548152602001600182015481526020016002820154815260200160038201548152505092508080600101915050611076565b8193505050509392505050565b6000806000611129611a6f565b60068581548110151561113857fe5b906000526020600020906004020160806040519081016040529081600082015481526020016001820154815260200160028201546000191660001916815260200160038201805480602002602001604051908101604052809291908181526020016000905b8282101561125a57838290600052602060002090018054600181600116156101000203166002900480601f0160208091040260200160405190810160405280929190818152602001828054600181600116156101000203166002900480156112465780601f1061121b57610100808354040283529160200191611246565b820191906000526020600020905b81548152906001019060200180831161122957829003601f168201915b50505050508152602001906001019061119d565b50505050815250509050806000015181602001518260400151935093509350509193909250565b6000600680549050905090565b6000611298611a6f565b6000806000851115156112aa57600080fd5b6006868154811015156112b957fe5b906000526020600020906004020160806040519081016040529081600082015481526020016001820154815260200160028201546000191660001916815260200160038201805480602002602001604051908101604052809291908181526020016000905b828210156113db57838290600052602060002090018054600181600116156101000203166002900480601f0160208091040260200160405190810160405280929190818152602001828054600181600116156101000203166002900480156113c75780601f1061139c576101008083540402835291602001916113c7565b820191906000526020600020905b8154815290600101906020018083116113aa57829003601f168201915b50505050508152602001906001019061131e565b50505050815250509250600760009054906101000a900473ffffffffffffffffffffffffffffffffffffffff1673ffffffffffffffffffffffffffffffffffffffff16632387e3e684604001516000604051602001526040518263ffffffff167c0100000000000000000000000000000000000000000000000000000000028152600401808260001916600019168152602001915050602060405180830381600087803b151561148a57600080fd5b6102c65a03f1151561149b57600080fd5b505050604051805190506103e8806103e8806103e88060648a60200151020202020202028115156114c857fe5b049150848202905080935050505092915050565b6000806000841115156114ee57600080fd5b6000831115156114fd57600080fd5b600360008681526020019081526020016000206000600260008881526020019081526020016000205481526020019081526020016000209150611574826080604051908101604052908160008201548152602001600182015481526020016002820154815260200160038201548152505085611794565b1561158a57611585858386866117b6565b6116fc565b5b8382600301541015156115c75760036000868152602001908152602001600020600083600001548152602001908152602001600020915061158b565b600360008681526020019081526020016000206000836001015481526020019081526020016000209050611665826080604051908101604052908160008201548152602001600182015481526020016002820154815260200160038201548152505085858460806040519081016040529081600082015481526020016001820154815260200160028201548152602001600382015481525050611853565b151561167057600080fd5b838260010181905550838160000181905550608060405190810160405280836003015481526020018260030154815260200184815260200185815250600360008781526020019081526020016000206000868152602001908152602001600020600082015181600001556020820151816001015560408201518160020155606082015181600301559050505b5050505050565b6080604051908101604052806000815260200160008152602001600081526020016000815250600360008381526020019081526020016000206000808152602001908152602001600020600082015181600001556020820151816001015560408201518160020155606082015181600301559050506000600260008381526020019081526020016000208190555050565b600081836060015110156117ab57600190506117b0565b600090505b92915050565b8183600101819055506080604051908101604052808460030154815260200160008152602001828152602001838152506003600086815260200190815260200160002060008481526020019081526020016000206000820151816000015560208201518160010155604082015181600201556060820151816003015590505081600260008681526020019081526020016000208190555050505050565b60008385604001518660600151011115611870576000905061188c565b81606001518385011115611887576000905061188c565b600190505b949350505050565b6060604051908101604052806000815260200160008152602001600073ffffffffffffffffffffffffffffffffffffffff1681525090565b602060405190810160405280600081525090565b602060405190810160405280600081525090565b815481835581811511611921576004028160040283600052602060002091820191016119209190611aa1565b5b505050565b828054828255906000526020600020908101928215611975579160200282015b82811115611974578251829080519060200190611964929190611ae8565b5091602001919060010190611946565b5b5090506119829190611b68565b5090565b602060405190810160405280600081525090565b8154818355818115116119c1578183600052602060002091820191016119c09190611b68565b5b505050565b828054600181600116156101000203166002900490600052602060002090601f016020900481019282601f10611a0757805160ff1916838001178555611a35565b82800160010185558215611a35579182015b82811115611a34578251825591602001919060010190611a19565b5b509050611a429190611b94565b5090565b608060405190810160405280600081526020016000815260200160008152602001600081525090565b608060405190810160405280600081526020016000815260200160008019168152602001611a9b611bb9565b81525090565b611ae591905b80821115611ae15760008082016000905560018201600090556002820160009055600382016000611ad89190611bcd565b50600401611aa7565b5090565b90565b828054600181600116156101000203166002900490600052602060002090601f016020900481019282601f10611b2957805160ff1916838001178555611b57565b82800160010185558215611b57579182015b82811115611b56578251825591602001919060010190611b3b565b5b509050611b649190611b94565b5090565b611b9191905b80821115611b8d5760008181611b849190611bee565b50600101611b6e565b5090565b90565b611bb691905b80821115611bb2576000816000905550600101611b9a565b5090565b90565b602060405190810160405280600081525090565b5080546000825590600052602060002090810190611beb9190611b68565b50565b50805460018160011615610100020316600290046000825580601f10611c145750611c33565b601f016020900490600052602060002090810190611c329190611b94565b5b50565b806000806101000a81548173ffffffffffffffffffffffffffffffffffffffff021916908373ffffffffffffffffffffffffffffffffffffffff160217905550505600a165627a7a72305820dd096ceac0d211d8df22090725e410da85fa6608cf228d4e206d1bd1a60c08f90029",
  "source": "pragma solidity ^0.4.18;\r\n\r\nimport \"./Authorization.sol\";\r\nimport \"./PropertyAuthority.sol\";\r\nimport \"./ExchangeRates.sol\";\r\nimport \"./StayLinkedList.sol\";\r\n\r\ncontract Property is Authorization, StayLinkedList {\r\n    string public name;\r\n    mapping(uint => mapping(uint => Stay)) public stays;\r\n    \r\n    // All assets are tracked within this array.\r\n    Asset[] private assets;\r\n    // We need to query an already deployed exhange.\r\n    ExchangeRates private exchangeRates;\r\n    // We need to attach to the good authority\r\n    PropertyAuthority private propertyAuthority;\r\n\r\n    // We are using the unix epoch format.\r\n    struct Stay {\r\n        uint startTime;\r\n        uint endTime;\r\n        address user;\r\n    }\r\n\r\n    // Basic information about an asset, more details will be provided by ipfs.\r\n    struct Asset {\r\n        uint id;\r\n        uint price;\r\n        bytes32 currency;\r\n        string[] metadataHashes;\r\n    }\r\n\r\n    function Property(string _name, address _owner, address _exchangeContract) public payable {\r\n        setOwner(_owner);\r\n        setAuthority(propertyAuthority);\r\n        name = _name;\r\n        // Make sure this contract is always calling the same exchange to convert user currency into ETH.\r\n        exchangeRates = ExchangeRates(_exchangeContract);        \r\n    }\r\n\r\n    // Ipfs hashes are used to retreive further information about an asset.\r\n    function addMetadataHashForAsset(uint id, string hash) onlyOwner public {\r\n        // Since assetIds are always incremented by 1, we can validate this way.\r\n        require(id < numberOfAssets());\r\n        assets[id].metadataHashes.push(hash);\r\n    }\r\n\r\n    function lastMetadataHashForAsset(uint id) public view returns (string) {\r\n        require(assets[id].metadataHashes.length > 0);\r\n        return assets[id].metadataHashes[assets[id].metadataHashes.length - 1];\r\n    }\r\n\r\n    // Asset management ////////////////\r\n    function addAsset(uint price, bytes32 currency) onlyOwner public {\r\n        require(exchangeRates.isCurrencyAllowed(currency));\r\n\r\n        uint newAssetId = assets.length;\r\n        StayLinkedList.initializeAssetList(newAssetId);\r\n        string[] memory metadataHashes;\r\n        assets.push(Asset(newAssetId, price, currency, metadataHashes));\r\n    }\r\n\r\n    function getAsset(uint id) public view returns (uint, uint, bytes32) {\r\n        Asset memory asset = assets[id];\r\n        return (asset.id, asset.price, asset.currency);\r\n    }\r\n\r\n    // Stay management ////////////////\r\n    function addStay(uint assetId, uint startTime, uint endTime) public payable {\r\n        require(endTime > startTime);\r\n        require(now <= startTime);\r\n        \r\n        // Check that duration is legitimate.\r\n        uint stayDurationInDays = (endTime - startTime) / 60 / 60 / 24;\r\n\r\n        // Check if the amount of wei sent is sufficient.\r\n        uint weiPriceForTheStay = getStayPriceInWei(assetId, stayDurationInDays);\r\n        require(msg.value >= weiPriceForTheStay);\r\n\r\n        // Here we'll need to return all surpluses to the paying user\r\n        // msg.value - weiPriceForTheStay -> return to msg.sender\r\n\r\n        // Add the stay within the linked list.\r\n        StayLinkedList.insertNode(assetId, startTime, endTime - startTime);\r\n        \r\n        // Map it within stays.\r\n        stays[assetId][startTime] = Stay(startTime, endTime, msg.sender);\r\n    }\r\n\r\n    function getStay(uint assetId, uint stayId) public view returns(uint, uint, address) {\r\n        Stay memory stay = stays[assetId][stayId];\r\n        return (stay.startTime, stay.endTime, stay.user);\r\n    }\r\n\r\n    function getStays(uint assetId, uint from, uint to) public view returns(uint[]) {\r\n        return StayLinkedList.getNodesBetween(assetId, from, to);\r\n    }\r\n\r\n    function getStayPriceInWei(uint assetId, uint stayDurationInDays) public view returns(uint) {\r\n        require(stayDurationInDays > 0);\r\n\r\n        Asset memory asset = assets[assetId];\r\n        uint weiPriceForSingleDay = ((asset.price * 100 * 1000 * 1000 * 1000 * 1000 * 1000 * 1000) / exchangeRates.getCurrencyRate(asset.currency));\r\n        uint weiPriceForTheStay = weiPriceForSingleDay * stayDurationInDays;\r\n\r\n        return weiPriceForTheStay;\r\n    }\r\n\r\n    // TODO, this is somewhat obscur since we need this because id are created from 0 - inf\r\n    function numberOfAssets() public view returns(uint) {\r\n        return assets.length;\r\n    }\r\n}",
  "sourcePath": "C:\\Users\\Francis\\Desktop\\latude-dev-portal\\contracts\\Property.sol",
  "compiler": {
    "name": "solc",
    "version": "0.4.18+commit.9cf6e910.Emscripten.clang"
  },
  "schemaVersion": "1.0.1",
  "updatedAt": "2017-11-25T19:09:03.097Z"
}